:1000000009C1000034C1000032C1000030C100004D
:100010002EC100002CC100002AC1000028C1000030
:1000200026C1000024C1000022C1000020C1000040
:100030001EC100001CC100001AC1000018C1000050
:1000400016C1000014C1000012C1000010C1000060
:100050000EC100000CC100000AC100009FC40000D6
:1000600006C1000078C30000ACC3000000C100005E
:10007000FEC00000FCC00000FAC00000F8C0000094
:10008000F6C00000F4C00000F2C00000F0C00000A4
:10009000EEC00000ECC00000EAC00000E8C00000B4
:1000A000E6C00000E4C00000E2C00000E0C00000C4
:1000B000DEC00000DCC00000DAC00000D8C00000D4
:1000C000D6C00000D4C00000D2C00000D0C00000E4
:1000D000CEC00000CCC00000CAC00000C8C00000F4
:1000E000C6C0000009060C06FB05FF050506430611
:1000F000100614061A061E06220628062C063006CE
:10010000430636063A063E0600000A0B02090C0DAD
:100110000E080703040100000000000000000000BA
:1001200000000000000000000000000000000000CF
:10013000000000001211100000000000000000008C
:1001400000000000000000000000000000000102AC
:1001500010202008081020401020408002010201D9
:100160000804020101020408102040808040201091
:1001700008040201800402018040201008040201EA
:100180000804020101020408102040800102040852
:10019000102040800505050507050808080802022B
:1001A00002020A0A08080404040401010101010111
:1001B00001010303030303030303040707070C0CF4
:1001C0000C0C0C0C0C0C02020202060606060606BB
:1001D00006060B0B0B0B0B0B0B0B00002200250074
:1001E00028002B002E003100340002010000050120
:1001F00008010B0100002100240027002A002D0027
:100200003000330001010000040107010A0132023D
:100210001304390211241FBECFEFD1E2DEBFCDBFE0
:1002200012E0A0E0B2E0E6EDF4E100E00BBF02C0B6
:1002300007900D92A232B107D9F722E0A2E2B2E014
:1002400001C01D92AD3FB207E1F712E0C2E1D2E07A
:1002500000E005C022970109FE010BBFEAD7CE30AE
:10026000D10780E00807B1F78FD30C945A0AC8CEA3
:10027000CF92DF92EF92FF92CF93DF936B017C01DD
:10028000C0E0D0E0A7019601BE0182E292E006D76D
:100290002196C639D105B1F782E292E0DF91CF9184
:1002A000FF90EF90DF90CF90E5C50F931F93CF9312
:1002B000DF9382E292E069D526E040E855E260E013
:1002C00070E083E592E0E7D10EE012E061E0F80132
:1002D0008081DAD4CCE0D2E061E08881D5D460E0DE
:1002E00080910A02D1D460E0888107D560E0F801EE
:1002F000808103D561E070E080E090E0BCD361E0F4
:100300008881FBD461E070E080E090E0B4D360E0ED
:100310008881F3D461E0F8018081EFD461E070E07E
:1003200080E090E0A8D340E060E08FEF1CD7A0DF32
:1003300064E670E080E090E09ED340E060E080E022
:1003400012D7DF91CF911F910F9192CFCF93DF936F
:10035000C5E4D2E060E080910E02CFD484E690E064
:10036000AFD380910A0218D48993999361E0809168
:100370000E02C3D484E690E0A3D382E0C335D8074D
:1003800049F7DF91CF9108957F928F929F92AF921C
:10039000BF92CF92DF92EF92FF920F931F93CF9372
:1003A000DF93C5E4D2E037E3832E32E0932E44E6B8
:1003B000742E69917991882777FD8095982F1F92E7
:1003C0001F921F927F92A12CB12C650118EEE12E95
:1003D00013E0F12E00E010E020E030E0A9018ED221
:1003E000F401619371934F010F900F900F900F9054
:1003F000F2E0C335DF07E9F6DF91CF911F910F914E
:10040000FF90EF90DF90CF90BF90AF909F908F9034
:100410007F9008950F931F93CF93DF9397DFB4DFFF
:1004200007E312E0C0E0D0E0F801819191918F01E3
:10043000C817D90714F44FEF01C040E060E080E036
:1004400092D69B01AC01BE0182E292E027D62196B2
:10045000C639D10549F782E292E0DF91CF911F9131
:100460000F9108C522E543E066E970E082E292E080
:10047000F0C582E292E077C4FC01818D228D90E08C
:10048000805C9F4F821B91098F7399270895FC010F
:10049000918D828D981731F0828DE80FF11D858D39
:1004A00090E008958FEF9FEF0895FC01918D828D6C
:1004B000981761F0828DDF01A80FB11D5D968C91B8
:1004C000928D9F5F9F73928F90E008958FEF9FEFC3
:1004D00008958AE094E0892B39F080E090E0892B40
:1004E00019F098D1811125C080E090E0892B41F06E
:1004F00080E090E0892B21F00E94000081111CC057
:1005000080E090E0892B41F080E090E0892B21F0A1
:100510000E940000811113C080E090E0892BA1F0BF
:1005200080E090E0892B81F00E94000081110AC0D8
:1005300008950E940000D8CF0E940000E1CF0E94E1
:100540000000EACF0C9400000895FC01848DDF01C7
:10055000A80FB11DA35ABF4F2C91848D90E0019636
:100560008F739927848FA689B7892C93A089B18925
:100570008C9180648C93938D848D981306C002882F
:10058000F389E02D80818F7D80830895CF93DF9361
:10059000EC01888D8823C1F0EA89FB89808185FD83
:1005A00005C0A889B9898C9186FD0EC00FB607FCDD
:1005B000F5CF808185FFF2CFA889B9898C9185FF1D
:1005C000EDCFCE01C2DFE8CFDF91CF910895CF927A
:1005D000DF92FF920F931F93CF93DF931F92CDB7BC
:1005E000DEB76C01DC015B969C915B975C968C910D
:1005F0005C97981307C05096ED91FC9151978081BC
:1006000085FD31C0F601038D10E00F5F1F4F0F73A2
:100610001127F02EF601848DF81210C00FB607FCDA
:10062000F9CFD6015096ED91FC915197808185FFCD
:10063000F1CFC601698389DF6981ECCF838DE80F33
:10064000F11DE35AFF4F6083D6015B960C935B97D5
:100650005296ED91FC91539780818062808381E076
:1006600058968C930DC0D6015696ED91FC915797F4
:1006700060835096ED91FC915197808180648083D6
:1006800081E090E00F90DF91CF911F910F91FF904B
:10069000DF90CF900895BF92CF92DF92EF92FF92BA
:1006A000CF93DF93EC016A017B01B22EE889F989CF
:1006B00082E08083411581EE58076105710599F04C
:1006C00060E079E08DE390E0A701960164D52150C8
:1006D00031094109510956954795379527952115B7
:1006E00080E1380790F0E889F989108260E874E8C1
:1006F0008EE190E0A70196014ED5215031094109C4
:1007000051095695479537952795EC85FD8530839A
:10071000EE85FF852083188EEC89FD89B082EA89F9
:10072000FB89808180618083EA89FB898081886080
:100730008083EA89FB89808180688083EA89FB89DC
:1007400080818F7D8083DF91CF91FF90EF90DF904C
:10075000CF90BF9008951F920F920FB60F92112461
:100760000BB60F922F938F939F93EF93FF93E0918C
:100770006302F09164028081E0916902F0916A0263
:1007800082FD12C0908180916C028F5F8F732091E7
:100790006D02821751F0E0916C02F0E0ED5AFD4FCE
:1007A000958F80936C0201C08081FF91EF919F91A2
:1007B0008F912F910F900BBE0F900FBE0F901F9037
:1007C00018951F920F920FB60F9211240BB60F922D
:1007D0002F933F934F935F936F937F938F939F9349
:1007E000AF93BF93EF93FF9383E592E0AEDEFF916B
:1007F000EF91BF91AF919F918F917F916F915F9199
:100800004F913F912F910F900BBE0F900FBE0F9005
:100810001F90189583E592E02FDE21E0892B09F4E3
:1008200020E0822F0895109256021092550288EE11
:1008300093E0A0E0B0E08093570290935802A09319
:100840005902B0935A0285E192E09093540280934A
:10085000530285EC90E09093600280935F0284ECF9
:1008600090E0909362028093610280EC90E090931C
:1008700064028093630281EC90E09093660280931F
:10088000650282EC90E0909368028093670286ECA8
:1008900090E090936A028093690210926C02109229
:1008A0006D0210926E0210926F020895CF92DF9245
:1008B000EF92FF920F931F93CF93DF936C017A0116
:1008C000EB01E60EF71E00E010E0CE15DF0561F04B
:1008D0006991D601ED91FC910190F081E02DC60166
:1008E0000995080F191FF1CFC801DF91CF911F9112
:1008F0000F91FF90EF90DF90CF9008954F925F920D
:100900006F927F92AF92BF92CF92DF92EF92FF925F
:100910000F931F93CF93DF93CDB7DEB729013A0131
:10092000621B730B840B950B29893A894B895C896F
:100930002A193B094C095D09298B3A8B4B8B5C8B3F
:100940009B01AC0169897A898B899C8915D4E4184B
:10095000F50806091709A80197013FD42A0D3B1D88
:100960004C1D5D1DCA01B901DF91CF911F910F91FF
:10097000FF90EF90DF90CF90BF90AF907F906F90FF
:100980005F904F9008950895A5D0FDDF8EDCC9E6F5
:10099000D2E040DD2097E9F39CDDFBCF1F920F9260
:1009A0000FB60F9211242F933F938F939F93AF9382
:1009B000BF938091F1029091F202A091F302B09165
:1009C000F4023091F00223E0230F2D3720F401963A
:1009D000A11DB11D05C026E8230F0296A11DB11D62
:1009E0002093F0028093F1029093F202A093F3021D
:1009F000B093F4028091F5029091F602A091F70273
:100A0000B091F8020196A11DB11D8093F50290935B
:100A1000F602A093F702B093F802BF91AF919F91B5
:100A20008F913F912F910F900FBE0F901F901895AF
:100A30003FB7F8948091F5029091F602A091F702E9
:100A4000B091F80226B5A89B05C02F3F19F001967A
:100A5000A11DB11D3FBF6627782F892F9A2F620FE6
:100A6000711D811D911D42E0660F771F881F991F20
:100A70004A95D1F70895CF92DF92EF92FF92CF93EC
:100A8000DF936B017C01D4DFEB01C114D104E104DD
:100A9000F10479F067D1CCDF6C1B7D0B683E7340AD
:100AA000A0F381E0C81AD108E108F108C851DC4F71
:100AB000ECCFDF91CF91FF90EF90DF90CF90089532
:100AC000019739F0880F991F880F991F0297019796
:100AD000F1F70895789484B5826084BD84B581600F
:100AE00084BD85B5826085BD85B5816085BDEEE636
:100AF000F0E0808181608083E1E8F0E01082808115
:100B000082608083808181608083E0E8F0E0808182
:100B100081608083E1EBF0E0808184608083E0EBA2
:100B2000F0E0808181608083E1E9F0E08081826093
:100B30008083808181608083E0E9F0E08081816052
:100B40008083E1EAF0E0808182608083808181603F
:100B50008083E0EAF0E0808181608083E1E2F1E07F
:100B6000808182608083808181608083E0E2F1E027
:100B7000808181608083EAE7F0E080818460808307
:100B800080818260808380818160808380818068B1
:100B900080831092C1000895863308F08653209117
:100BA0007B00982F9870277F922B90937B00877003
:100BB0002091100290E4299F90011124822B8093B0
:100BC0007C0080917A00806480937A0080917A0022
:100BD00086FDFCCF809178002091790090E0922BE7
:100BE000089590E0FC013197E231F10508F04BC027
:100BF000EE58FF4F0EC3809180008F7703C0809125
:100C000080008F7D80938000089580918000877F91
:100C1000F9CF84B58F7702C084B58F7D84BD0895E8
:100C20008091B0008F7703C08091B0008F7D80935A
:100C3000B0000895809190008F7707C08091900058
:100C40008F7D03C080919000877F809390000895EE
:100C50008091A0008F7707C08091A0008F7D03C096
:100C60008091A000877F8093A0000895809120014B
:100C70008F7707C0809120018F7D03C08091200174
:100C8000877F809320010895CF93DF9390E0FC014C
:100C9000E25BFE4F2491FC01EC56FE4F84918823C9
:100CA00049F190E0880F991FFC01EC50FE4FA5918F
:100CB000B49186529E4FFC01C591D4919FB76111AA
:100CC00008C0F8948C91209582238C93888182238C
:100CD0000AC0623051F4F8948C91322F30958323FE
:100CE0008C938881822B888304C0F8948C91822B0A
:100CF0008C939FBFDF91CF9108950F931F93CF9354
:100D0000DF931F92CDB7DEB7282F30E0F901E85FFF
:100D1000FE4F8491F901E25BFE4F1491F901EC560C
:100D2000FE4F04910023C1F0882319F0698359DF35
:100D30006981E02FF0E0EE0FFF1FE652FE4FA59114
:100D4000B4919FB7F8948C91611103C010958123E1
:100D500001C0812B8C939FBF0F90DF91CF911F918A
:100D60000F9108950895CF93DF93EC0188859985BD
:100D7000009709F009D38E8187FD04C060E0DF9100
:100D8000CF9182CFDF91CF910895CF93DF93EC0184
:100D90008E8187FD05C061E077DF60E08E81ADDF89
:100DA00081E08983DF91CF910895EF92FF920F93B5
:100DB0001F93CF93DF93EC017B0188859985009782
:100DC00009F0E2D29D858A85981303C083E090E004
:100DD00002C084E090E08E9D80018F9D100D9E9D4D
:100DE000100D11241D830C83C80136D29987888782
:100DF000009739F0A80160E070E055D3FB82EA82E9
:100E000004C01D821C821B821A82DF91CF911F9128
:100E10000F91FF90EF900895FC0141E09585828548
:100E2000981340E0562F5295569556955370558716
:100E3000862F90E09C0174E0359527957A95E1F72F
:100E400023702287959587959595879583708387DD
:100E50006370648781E0808380859185892B49F068
:100E600081E0521380E0841721F062817381CF0109
:100E70009CCF0895CF92DF92EF92FF920F931F9332
:100E8000CF93DF93CDB7DEB729970FB6F894DEBFC7
:100E90000FBECDBF8C01DC0118968D919C911997E6
:100EA000892B09F498C0C4DDF801C684D784E08892
:100EB000F1886C197D098E099F09623371058105DE
:100EC000910588F3F894848195819A838983A0851C
:100ED000B1857D01EFEFEE1AFE0A8C918987D8016A
:100EE0009C9152960D90BC91A02DF8018489992374
:100EF00009F42EC09C91982B98879C91809589230A
:100F00008F838F818E8388E08D8358856F8149859B
:100F10003D812E8189819A81F7015C9347FD252FC0
:100F20003A952C93262F39F0441F00C000006C9393
:100F3000000000C0F2CF38E041916C9300000197AF
:100F400061F7F801B38BA28B49873D832E8338C0AC
:100F50009C91982B98879C91809589238F838F8172
:100F60008C8388E08B8358856F8149853B812C81F8
:100F700089819A81F7015C9347FD252F00C000C04D
:100F80002C9300C000C000C000C000C06C930000E3
:100F9000262F3A9541F0441F000000C000C000C059
:100FA00000C000C0E8CF38E0419100C06C9300C0A1
:100FB000019709F7F801B38BA28B49873B832C83F8
:100FC0009A838983789434DDD8011E966D937D933E
:100FD0008D939C93519729960FB6F894DEBF0FBE60
:100FE000CDBFDF91CF911F910F91FF90EF90DF90D8
:100FF000CF9008951F93CF93DF93EC01162F898133
:10100000882329F08E8187FD02C060E03DDE1E83CB
:101010008981882331F061E0812F36DE60E0812F05
:101020006CDE812F90E0FC01EC56FE4FE491F0E085
:10103000EE0FFF1FE652FE4F259134913B8B2A8B1A
:10104000FC01E25BFE4F84918C8BDF91CF911F916D
:101050000895EF92FF920F931F93CF93DF931F9208
:10106000CDB7DEB77C018B01FC011182178211869E
:10107000108616861786108A118A622F4983CCDE65
:10108000B801C70192DE4981642FC7010F90DF913B
:10109000CF911F910F91FF90EF90ACCFCF92DF9245
:1010A000EF92FF920F931F93CF93DF93FC01828106
:1010B00093816817790708F04DC0CA01AA27BB279A
:1010C000182FC32ED42EE52EFF24DC2DC22F07812E
:1010D000002361F0809FC0011124192FC09E600180
:1010E0001124DD2D209FC0011124C92FF584828594
:1010F000A085B185F81208C0CB01880F991F860F13
:10110000971F8A0F9B1F17C0CB01880F991F880F4D
:10111000991F8A0F9B1F452F552766277727DC01CC
:10112000AF0DB11D002329F0409F90011124232F02
:1011300001C0242F2C932285DC01A20FB11D1C932A
:101140002385DC01A20FB11DDC932485FC01E20F95
:10115000F11DC083DF91CF911F910F91FF90EF9010
:10116000DF90CF900895962F50E060E070E0592B0B
:10117000682BCB01BA010895DB018F939F934FD069
:10118000BF91AF91A29F800D911DA39F900DB29F23
:10119000900D11240895A1E21A2EAA1BBB1BFD017C
:1011A0000DC0AA1FBB1FEE1FFF1FA217B307E40746
:1011B000F50720F0A21BB30BE40BF50B661F771F9E
:1011C000881F991F1A9469F760957095809590957E
:1011D0009B01AC01BD01CF010895052E97FB16F4CC
:1011E00000940FD057FD05D0D6DF07FC02D046F49F
:1011F00008C050954095309521953F4F4F4F5F4F18
:10120000089590958095709561957F4F8F4F9F4F72
:101210000895EE0FFF1F0590F491E02D09940DD075
:10122000A59F900DB49F900DA49F800D911D11243A
:1012300008950790F691E02D0994A29FB001B39F05
:10124000C001A39F700D811D1124911DB29F700DCF
:10125000811D1124911D0895CF93DF938230910554
:1012600010F482E090E0E091FB02F091FC0220E0BB
:1012700030E0A0E0B0E0309739F14081518148176B
:101280005907B8F04817590771F482819381109774
:1012900029F013969C938E9312972CC09093FC0286
:1012A0008093FB0227C02115310531F04217530707
:1012B00018F0A901DB0101C0EF019A01BD01DF01B6
:1012C0000280F381E02DD7CF21153105F9F0281BDD
:1012D000390B2430310580F48A819B8161157105B9
:1012E00021F0FB019383828304C09093FC028093DE
:1012F000FB02FE01329644C0FE01E20FF31F819310
:10130000919322503109398328833AC02091F90200
:101310003091FA02232B41F4209102023091030212
:101320003093FA022093F9022091000230910102D9
:101330002115310541F42DB73EB74091040250917B
:101340000502241B350BE091F902F091FA02E21735
:10135000F307A0F42E1B3F0B2817390778F0AC01D8
:101360004E5F5F4F2417350748F04E0F5F1F5093B5
:10137000FA024093F9028193919302C0E0E0F0E019
:10138000CF01DF91CF910895CF93DF93009709F4B8
:1013900087C0FC01329713821282C091FB02D09168
:1013A000FC02209781F420813181280F391F809120
:1013B000F9029091FA028217930779F5F093FA02F5
:1013C000E093F9026DC0DE0120E030E0AE17BF0708
:1013D00050F412964D915C9113979D014115510562
:1013E00009F1DA01F3CFB383A28340815181840FE5
:1013F000951F8A179B0771F48D919C911197840F0B
:10140000951F02969183808312968D919C911397DC
:10141000938382832115310529F4F093FC02E09334
:10142000FB023EC0D9011396FC93EE9312974D91A7
:101430005D91A40FB51FEA17FB0779F480819181B4
:10144000840F951F0296D90111969C938E938281E9
:10145000938113969C938E931297E0E0F0E08A813B
:101460009B81009719F0FE01EC01F9CFCE010296A5
:1014700028813981820F931F2091F9023091FA025D
:101480002817390769F4309729F41092FC0210925A
:10149000FB0202C013821282D093FA02C093F902B7
:1014A000DF91CF910895DC0101C06D934150504010
:1014B000E0F7089512E0C2E1D2E000E005C0229713
:1014C0000109FE010BBFB5DEC431D10780E008077A
:0614D000B1F7F894FFCF14
:1014D6000000FD028000010000003600010002004D
:1014E6000100000000E70256043C0255024702C60E
:0214F6000200F2
:00000001FF
