:1000000008C1000032C1000030C100002EC1000054
:100010002CC100002AC1000028C1000026C1000038
:1000200024C1000022C1000020C100001EC1000048
:100030001CC100001AC1000018C1000016C1000058
:1000400014C1000012C1000010C100000EC1000068
:100050000CC100000AC1000008C100004EC300002E
:1000600004C1000002C1000000C10000FEC0000089
:10007000FCC00000FAC00000F8C00000F6C000009C
:10008000F4C00000F2C00000F0C00000EEC00000AC
:10009000ECC00000EAC00000E8C00000E6C00000BC
:1000A000E4C00000E2C00000E0C00000DEC00000CC
:1000B000DCC00000DAC00000D8C00000D6C00000DC
:1000C000D4C00000D2C00000D0C00000CEC00000EC
:1000D000CCC00000CAC00000C8C00000C6C00000FC
:1000E000C4C00000B804BB04AA04AE04B404F20403
:1000F000BF04C304C904CD04D104D704DB04DF0466
:10010000F204E504E904ED0400000A0B02090C0DF9
:100110000E080703040100000000000000000000BA
:1001200000000000000000000000000000000000CF
:10013000000000001211100000000000000000008C
:1001400000000000000000000000000000000102AC
:1001500010202008081020401020408002010201D9
:100160000804020101020408102040808040201091
:1001700008040201800402018040201008040201EA
:100180000804020101020408102040800102040852
:10019000102040800505050507050808080802022B
:1001A00002020A0A08080404040401010101010111
:1001B00001010303030303030303040707070C0CF4
:1001C0000C0C0C0C0C0C02020202060606060606BB
:1001D00006060B0B0B0B0B0B0B0B00002200250074
:1001E00028002B002E003100340002010000050120
:1001F00008010B0100002100240027002A002D0027
:100200003000330001010000040107010A0122034C
:10021000290311241FBECFEFD1E2DEBFCDBF12E014
:10022000A0E0B2E0E4E3F2E100E00BBF02C007901F
:100230000D92A631B107D9F723E0A6E1B2E001C0E3
:100240001D92A73AB207E1F712E0C0E1D2E000E068
:1002500005C022970109FE010BBF9AD6CE30D10707
:1002600080E00807B1F73ED2D4C7CACECF92DF9262
:10027000EF92FF921F93CF93DF936B017C01142FBA
:10028000C0E0D0E0A7019601BE018DE493E0B5D5B2
:100290002196C639D105B1F7112351F08DE493E0D1
:1002A000DF91CF911F91FF90EF90DF90CF9091C49D
:1002B000DF91CF911F91FF90EF90DF90CF90089545
:1002C00020910A0230910B02E6E1F2E080E090E03A
:1002D00041E08217930714F4408301C01082019615
:1002E000319686399105A9F708950F931F93CF93FF
:1002F000DF938DE493E0F8D302E112E061E0F801CE
:10030000808171D3C0E1D2E061E088816CD360E08C
:1003100080910E0268D360E088819ED360E0F8018E
:1003200080819AD361E070E080E090E053D261E098
:10033000888192D361E070E080E090E04BD260E091
:1003400088818AD361E0F801808186D361E070E022
:1003500080E090E03FD240E060E08FEFB3D541E035
:1003600085DF63E070E080E090E034D240E060E060
:1003700080E0A8D541E07ADFDF91CF911F910F9106
:100380009FCF40E060E080E09DD540E06FCF2091BE
:10039000AC0290914203882369F0EDEAF2E0ACEA06
:1003A000B2E081918D9383E0E334F807D1F7209395
:1003B00042030895E2E4F3E0A3E4B3E082918E9374
:1003C00082E0EC3AF807D1F79093AC020895CF930E
:1003D000DF93C0E0D0E0809170039091710397FDAE
:1003E000079623E0959587952A95E1F7C817D907D1
:1003F00054F444E660E08FEF65D59B01AC01BE018B
:100400008DE493E0FAD42196C639D10521F7DF9126
:10041000CF9108958F929F92AF92BF92CF92DF9229
:10042000EF92FF920F931F93CF93DF936B017C01A9
:1004300049015A0186E9E6E1F2E0ACEAB2E0019056
:100440000D928A95E1F7C0E0D0E080910C02909186
:100450000D028C179D072CF08091420398DF2196A6
:10046000F4CF0CEA12E0C0E0D0E0F80181918F01F6
:10047000882319F0A701960102C0A5019401BE01CD
:100480008DE493E0BAD42196C639D10571F78091F5
:100490000C0290910D0201968639910529F09093F6
:1004A0000D0280930C0204C010920D0210920C02F7
:1004B000DF91CF911F910F91FF90EF90DF90CF9040
:1004C000BF90AF909F908F900895CF93DF93E0E718
:1004D000F3E0819191919587848783E0EE37F80767
:1004E000C1F7C7E0D0E060E080911202B5D284E6A7
:1004F00090E095D180910E02FED19093710380938C
:10050000700361E080911202A7D284E690E087D167
:10051000219749F7DF91CF9108957F928F929F9213
:10052000AF92BF92CF92DF92EF92FF920F931F9301
:10053000CF93DF93C0E7D3E042E6842E43E0942ECE
:1005400054E6752E69917991882777FD8095982FCB
:100550001F921F921F927F92A12CB12C650118EE61
:10056000E12E13E0F12E00E010E020E030E0A901E0
:1005700073D0F401619371934F010F900F900F901E
:100580000F90F3E0CE37DF07E9F6DF91CF911F91AF
:100590000F91FF90EF90DF90CF90BF90AF909F9022
:1005A0008F907F9008958F929F92AF92BF92CF923B
:1005B000DF92EF92FF92CF93DF9387DFAEDFE1DE32
:1005C00040E060E082E37ED46B017C0147E360E0C1
:1005D00080E078D44B015C0182E090E0909344038A
:1005E00080934303C3E4D3E083E0CD34D807E9F03C
:1005F000899199918230910559F08330910571F07C
:10060000019791F7A5019401C701B601E0DEECCF97
:10061000A5019401C701B601FDDEE6CF4FEF64E608
:1006200084E650D441E022DEDFCF8DE493E0DF9119
:10063000CF91FF90EF90DF90CF90BF90AF909F90C1
:100640008F90C7C222E543E066E970E08DE493E055
:10065000AFC38DE493E036C24F925F926F927F9268
:10066000AF92BF92CF92DF92EF92FF920F931F93C0
:10067000CF93DF93CDB7DEB729013A01621B730B2D
:10068000840B950B29893A894B895C892A193B0986
:100690004C095D09298B3A8B4B8B5C8B9B01AC0120
:1006A00069897A898B899C8916D4E418F50806092A
:1006B0001709A801970140D42A0D3B1D4C1D5D1D53
:1006C000CA01B901DF91CF911F910F91FF90EF9077
:1006D000DF90CF90BF90AF907F906F905F904F90E2
:1006E00008950895A6D0FDDF00DEC0E0D0E05BDF16
:1006F0002097E9F30E940000FACF1F920F920FB6E5
:100700000F9211242F933F938F939F93AF93BF9397
:1007100080919B0390919C03A0919D03B0919E03B7
:1007200030919A0323E0230F2D3720F40196A11D69
:10073000B11D05C026E8230F0296A11DB11D20930F
:100740009A0380939B0390939C03A0939D03B09383
:100750009E0380919F039091A003A091A103B0916B
:10076000A2030196A11DB11D80939F039093A00346
:10077000A093A103B093A203BF91AF919F918F91DA
:100780003F912F910F900FBE0F901F9018953FB77C
:10079000F89480919F039091A003A091A103B09140
:1007A000A20326B5A89B05C02F3F19F00196A11DF5
:1007B000B11D3FBF6627782F892F9A2F620F711DB9
:1007C000811D911D42E0660F771F881F991F4A9572
:1007D000D1F70895CF92DF92EF92FF92CF93DF93FC
:1007E0006B017C01D4DFEB01C114D104E104F104FD
:1007F00079F067D1CCDF6C1B7D0B683E7340A0F3B2
:1008000081E0C81AD108E108F108C851DC4FECCFEB
:10081000DF91CF91FF90EF90DF90CF9008950197F7
:1008200039F0880F991F880F991F02970197F1F7E8
:100830000895789484B5826084BD84B5816084BD58
:1008400085B5826085BD85B5816085BDEEE6F0E049
:10085000808181608083E1E8F0E0108280818260A5
:100860008083808181608083E0E8F0E08081816026
:100870008083E1EBF0E0808184608083E0EBF0E056
:10088000808181608083E1E9F0E080818260808303
:10089000808181608083E0E9F0E0808181608083F5
:1008A000E1EAF0E0808182608083808181608083E2
:1008B000E0EAF0E0808181608083E1E2F1E0808124
:1008C00082608083808181608083E0E2F1E08081CA
:1008D00081608083EAE7F0E08081846080838081AA
:1008E0008260808380818160808380818068808352
:1008F0001092C1000895863308F0865320917B0042
:10090000982F9870277F922B90937B00877020916F
:10091000140290E4299F90011124822B80937C0083
:1009200080917A00806480937A0080917A0086FDBD
:10093000FCCF809178002091790090E0922B08956F
:1009400090E0FC013197E231F10508F04BC0EE5820
:10095000FF4F0EC3809180008F7703C0809180008D
:100960008F7D80938000089580918000877FF9CFEC
:1009700084B58F7702C084B58F7D84BD0895809142
:10098000B0008F7703C08091B0008F7D8093B0005E
:100990000895809190008F7707C0809190008F7D9F
:1009A00003C080919000877F80939000089580918C
:1009B000A0008F7707C08091A0008F7D03C0809139
:1009C000A000877F8093A0000895809120018F77F9
:1009D00007C0809120018F7D03C080912001877F17
:1009E000809320010895CF93DF9390E0FC01E25BB8
:1009F000FE4F2491FC01EC56FE4F8491882349F16F
:100A000090E0880F991FFC01EC50FE4FA591B49126
:100A100086529E4FFC01C591D4919FB7611108C0C9
:100A2000F8948C91209582238C93888182230AC02C
:100A3000623051F4F8948C91322F309583238C934B
:100A40008881822B888304C0F8948C91822B8C93AC
:100A50009FBFDF91CF9108950F931F93CF93DF93A3
:100A60001F92CDB7DEB7282F30E0F901E85FFE4FC7
:100A70008491F901E25BFE4F1491F901EC56FE4FAF
:100A800004910023C1F0882319F0698359DF69813B
:100A9000E02FF0E0EE0FFF1FE652FE4FA591B4915C
:100AA0009FB7F8948C91611103C01095812301C008
:100AB000812B8C939FBF0F90DF91CF911F910F914E
:100AC00008950895CF93DF93EC0188859985009769
:100AD00009F009D38E8187FD04C060E0DF91CF91DA
:100AE00082CFDF91CF910895CF93DF93EC018E8178
:100AF00087FD05C061E077DF60E08E81ADDF81E0DA
:100B00008983DF91CF910895EF92FF920F931F9306
:100B1000CF93DF93EC017B0188859985009709F0DD
:100B2000E2D29D858A85981303C083E090E002C0DD
:100B300084E090E08E9D80018F9D100D9E9D100D94
:100B400011241D830C83C80136D2998788870097AA
:100B500039F0A80160E070E055D3FB82EA8204C05E
:100B60001D821C821B821A82DF91CF911F910F91EF
:100B7000FF90EF900895FC0141E0958582859813E0
:100B800040E0562F52955695569553705587862FAF
:100B900090E09C0174E0359527957A95E1F72370F4
:100BA0002287959587959595879583708387637040
:100BB000648781E0808380859185892B49F081E07D
:100BC000521380E0841721F062817381CF019CCFA2
:100BD0000895CF92DF92EF92FF920F931F93CF93DE
:100BE000DF93CDB7DEB729970FB6F894DEBF0FBEFF
:100BF000CDBF8C01DC0118968D919C911997892BA2
:100C000009F498C0C4DDF801C684D784E088F1886F
:100C10006C197D098E099F09623371058105910563
:100C200088F3F894848195819A838983A085B1851E
:100C30007D01EFEFEE1AFE0A8C918987D8019C9115
:100C400052960D90BC91A02DF8018489992309F446
:100C50002EC09C91982B98879C91809589238F8397
:100C60008F818E8388E08D8358856F8149853D8192
:100C70002E8189819A81F7015C9347FD252F3A9552
:100C80002C93262F39F0441F00C000006C93000005
:100C900000C0F2CF38E041916C930000019761F7FA
:100CA000F801B38BA28B49873D832E8338C09C917A
:100CB000982B98879C91809589238F838F818C8333
:100CC00088E08B8358856F8149853B812C818981A0
:100CD0009A81F7015C9347FD252F00C000C02C933B
:100CE00000C000C000C000C000C06C930000262FF0
:100CF0003A9541F0441F000000C000C000C000C091
:100D000000C0E8CF38E0419100C06C9300C001976B
:100D100009F7F801B38BA28B49873B832C839A8315
:100D20008983789434DDD8011E966D937D938D93DD
:100D30009C93519729960FB6F894DEBF0FBECDBF96
:100D4000DF91CF911F910F91FF90EF90DF90CF90A7
:100D500008951F93CF93DF93EC01162F8981882389
:100D600029F08E8187FD02C060E03DDE1E8389810F
:100D7000882331F061E0812F36DE60E0812F6CDE68
:100D8000812F90E0FC01EC56FE4FE491F0E0EE0F75
:100D9000FF1FE652FE4F259134913B8B2A8BFC01BD
:100DA000E25BFE4F84918C8BDF91CF911F91089570
:100DB000EF92FF920F931F93CF93DF931F92CDB7C4
:100DC000DEB77C018B01FC0111821782118610862F
:100DD00016861786108A118A622F4983CCDEB801E5
:100DE000C70192DE4981642FC7010F90DF91CF9137
:100DF0001F910F91FF90EF90ACCFCF92DF92EF92C7
:100E0000FF920F931F93CF93DF93FC018281938115
:100E10006817790708F04DC0CA01AA27BB27182F09
:100E2000C32ED42EE52EFF24DC2DC22F07810023F4
:100E300061F0809FC0011124192FC09E6001112410
:100E4000DD2D209FC0011124C92FF5848285A08546
:100E5000B185F81208C0CB01880F991F860F971F24
:100E60008A0F9B1F17C0CB01880F991F880F991FEE
:100E70008A0F9B1F452F552766277727DC01AF0D6B
:100E8000B11D002329F0409F90011124232F01C0A0
:100E9000242F2C932285DC01A20FB11D1C932385E6
:100EA000DC01A20FB11DDC932485FC01E20FF11DD2
:100EB000C083DF91CF911F910F91FF90EF90DF9052
:100EC000CF900895962F50E060E070E0592B682B8A
:100ED000CB01BA010895DB018F939F934FD0BF914F
:100EE000AF91A29F800D911DA39F900DB29F900D79
:100EF00011240895A1E21A2EAA1BBB1BFD010DC0EF
:100F0000AA1FBB1FEE1FFF1FA217B307E407F507B9
:100F100020F0A21BB30BE40BF50B661F771F881F95
:100F2000991F1A9469F760957095809590959B012B
:100F3000AC01BD01CF010895052E97FB16F4009476
:100F40000FD057FD05D0D6DF07FC02D046F408C00D
:100F500050954095309521953F4F4F4F5F4F0895E5
:100F600090958095709561957F4F8F4F9F4F089515
:100F7000EE0FFF1F0590F491E02D09940DD0A59F71
:100F8000900DB49F900DA49F800D911D1124089584
:100F90000790F691E02D0994A29FB001B39FC00184
:100FA000A39F700D811D1124911DB29F700D811D95
:100FB0001124911D0895CF93DF938230910510F491
:100FC00082E090E0E091A503F091A60320E030E0FC
:100FD000A0E0B0E0309739F14081518148175907BE
:100FE000B8F04817590771F482819381109729F05E
:100FF00013969C938E9312972CC09093A603809384
:10100000A50327C02115310531F04217530718F009
:10101000A901DB0101C0EF019A01BD01DF010280DE
:10102000F381E02DD7CF21153105F9F0281B390BBD
:101030002430310580F48A819B816115710521F08E
:10104000FB019383828304C09093A6038093A5033E
:10105000FE01329644C0FE01E20FF31F819391938B
:1010600022503109398328833AC02091A30330915B
:10107000A403232B41F42091020230910302309308
:10108000A4032093A30320910002309101022115B3
:10109000310541F42DB73EB740910402509105024D
:1010A000241B350BE091A303F091A403E217F3078F
:1010B000A0F42E1B3F0B2817390778F0AC014E5FC8
:1010C0005F4F2417350748F04E0F5F1F5093A4035E
:1010D0004093A3038193919302C0E0E0F0E0CF013D
:1010E000DF91CF910895CF93DF93009709F487C0E4
:1010F000FC01329713821282C091A503D091A603FE
:10110000209781F420813181280F391F8091A3031A
:101110009091A4038217930779F5F093A403E093C9
:10112000A3036DC0DE0120E030E0AE17BF0750F42E
:1011300012964D915C9113979D014115510509F14E
:10114000DA01F3CFB383A28340815181840F951FCD
:101150008A179B0771F48D919C911197840F951FAD
:1011600002969183808312968D919C91139793831D
:1011700082832115310529F4F093A603E093A5039A
:101180003EC0D9011396FC93EE9312974D915D9159
:10119000A40FB51FEA17FB0779F480819181840FB2
:1011A000951F0296D90111969C938E93828193810B
:1011B00013969C938E931297E0E0F0E08A819B81D6
:1011C000009719F0FE01EC01F9CFCE0102962881BB
:1011D0003981820F931F2091A3033091A403281714
:1011E000390769F4309729F41092A6031092A503E9
:1011F00002C013821282D093A403C093A303DF9191
:10120000CF910895DC0101C06D9341505040E0F74B
:10121000089512E0C0E1D2E000E005C02297010984
:10122000FE010BBFB5DEC231D10780E00807B1F780
:04123000F894FFCF60
:101234000000A7038000010000004B0014003600EA
:06124400010002000100A0
:00000001FF
